:100000000C942D010C945E010C945E010C945E0125
:100010000C945E010C945E010C945E010C945E01E4
:100020000C945E010C945E010C945E010C945E01D4
:100030000C945E010C945E010C945E010C945E01C4
:100040000C945E010C94B9090C945E010C945E0151
:100050000C945E010C945E010C945E010C94E50816
:100060000C945E010C945E010C945E010C945E0194
:100070000C945E010C945E010C945E010C945E0184
:100080000C948B090C945E010C945E010C945E013F
:100090000C945E010C945E010C945E010C945E0164
:1000A0000C945E010C945E010C945D090C945E014D
:1000B0000C945E010C945E010C945E010C942F096B
:1000C0000C945E010C945E010C945E010C945E0134
:1000D0000C945E010C945E010C945E010C945E0124
:1000E0000C945E010C9452020C9426020C9456025D
:1000F0000C9476030C943A020C941F020C943E026A
:100100000C9451020C9417020C9423020C941B02C1
:100110000C94B4020C9411020C9436020C948302D9
:100120000C9448020C942C020C9430020C945A0B40
:100130000C944C020C94440200002100240027007F
:100140002A002D00300033000101000004010701E6
:100150000A0100002200250028002B002E0031009B
:10016000340002010000050108010B01000020001D
:100170002300260029002C002F003200000100007F
:10018000030106010901050505050705080808081A
:10019000020202020A0A080804040404010101011F
:1001A000010101010303030303030303040707071A
:1001B0000C0C0C0C0C0C0C0C0202020206060606BF
:1001C000060606060B0B0B0B0B0B0B0B010210208C
:1001D000200808102040102040800201020108047D
:1001E0000201010204081020408080402010080411
:1001F000020180040201804020100804020108046A
:1002000002010102040810204080010204081020AD
:10021000408000000A0B02090C0D0E0807030401C0
:1002200000000000000000000000000000000000CE
:10023000000000000000000000000000000012119B
:10024000100000000000000000000000000000009E
:1002500000000000000000005A0B11241FBECFEF69
:10026000D1E2DEBFCDBF00E00CBF12E0A0E0B2E003
:10027000E6E5F8E100E00BBF02C007900D92A23264
:10028000B107D9F724E0A2E2B2E001C01D92A33386
:10029000B207E1F711E0CDE2D1E000E006C021971E
:1002A0000109802FFE010E94210CCC32D10780E091
:1002B0000807A9F70E94080A0C94290C0C94000066
:1002C00096E0899FD0011124AC5BBD4F90967C9342
:1002D0006E935F9791E091969C939197E091B10214
:1002E000F091B2029091B002992339F0309751F019
:1002F000811108C0809160021994309719F05C96C2
:100300008C91FACF0895CF92DF92EF92FF920F93E4
:100310001F9396E0899FF0011124EC5BFD4F11A221
:10032000278D30A12130310551F178F0223031058F
:1003300009F451C02330310509F452C01F910F91C7
:10034000FF90EF90DF90CF9008956623B9F361E0BE
:1003500070E00E9460012FB7F89480914002909164
:100360004102A0914202B09143022FBF80939C02B0
:1003700090939D02A0939E02B0939F02DFCF9FB700
:10038000F894C0904002D0904102E0904202F09078
:1003900043029FBF00919C0210919D0220919E02FA
:1003A00030919F02C01AD10AE20AF30A0091AE020C
:1003B0001091AF0230E020E00C151D052E053F0521
:1003C00050F462E070E01F910F91FF90EF90DF908A
:1003D000CF900C9460016111B1CF63E070E0F3CF76
:1003E00070E060E0F0CF8150823108F05AC0E82F11
:1003F000F0E08827E150FE4F8F4F0C94210C1F0234
:100400002302110217021B02510226022C023002A3
:1004100036023A023E024402480251024C025202A3
:100420005602809180008F7780938000089580919C
:1004300080008F7DF9CF80918000877FF5CF84B5D4
:100440008F7784BD089584B58F7DFBCF8091B000F8
:100450008F778093B00008958091B0008F7DF9CFA1
:10046000809190008F778093900008958091900004
:100470008F7DF9CF80919000877FF5CF8091A0008C
:100480008F778093A00008958091A0008F7DF9CF91
:100490008091A000877FF5CF809120018F77809396
:1004A00020010895809120018F7DF9CF8091200156
:1004B000877FF5CFCF93DF93282F30E0F901EE5EF1
:1004C000FD4F8491F901E453FE4FD491F901EA57AD
:1004D000FE4FC491CC23A1F081110E94F301EC2FB7
:1004E000F0E0EE0FFF1FE459FE4FA591B491EC919F
:1004F000ED2381E090E009F480E0DF91CF91089551
:1005000080E090E0FACF862F0C945A021F93CF938D
:10051000DF93282F30E0F901EE5EFD4F8491F90161
:10052000E453FE4FD491F901EA57FE4FC491CC2316
:10053000A9F0162F81110E94F301EC2FF0E0EE0FCD
:10054000FF1FEE5AFE4FA591B4918FB7F894EC912E
:10055000111108C0D095DE23DC938FBFDF91CF91BE
:100560001F910895DE2BF8CF862F642F0C948602FE
:10057000CF93DF9390E0FC01E453FE4F24918A5720
:100580009E4FFC0184918823C9F090E0880F991F49
:10059000FC01E85CFE4FA591B491FC01EE5AFE4FC0
:1005A000C591D49161110DC09FB7F8948C9120959D
:1005B00082238C938881282328839FBFDF91CF914A
:1005C0000895623051F49FB7F8943C91822F809542
:1005D00083238C93E8812E2BEFCF8FB7F894EC9187
:1005E0002E2B2C938FBFEACF1F93CF93DF93EC0179
:1005F000162F8881803308F048C061E0812F0E9467
:10060000B802888198E0899FF0011124ED54FD4FD4
:100610001F736081607C612B608319821A822CE0D9
:10062000622F0E94150C829FB001112430E020E05F
:10063000FB01E20FF31F93E0EE0FFF1F9A95E1F726
:10064000ED54FD4F908196FD16C02F5F3F4F2C302B
:10065000310571F78130F1F41092800082E08093CF
:1006600081001092850010928400B19A80916F00F1
:10067000826080936F00E88188E0E89FF001112498
:10068000ED54FD4F8081806480838881DF91CF911C
:100690001F910895823061F4109290008093910030
:1006A000109295001092940088BB80937100E3CF64
:1006B000833069F41092A00082E08093A100109230
:1006C000A5001092A40089BB80937200D4CF811141
:1006D000D2CF1092200182E0809321011092250157
:1006E000109224018ABB80937300C5CF862F642F9C
:1006F0000C94B8026F927F928F929F92AF92BF92AA
:10070000CF92DF92EF92FF920F931F93CF93DF93DD
:1007100081E08093B0028FB7F894409140025091ED
:10072000410260914202709143028FBF8091A0020A
:100730009091A102A091A202B091A302481B590B73
:100740006A0B7B0B8091AC029091AD02B0E0A0E00F
:1007500084179507A607B70708F01DC1C0E0809170
:10076000AA02C81760F4E091A602F091A702EC0F6C
:10077000F11D62E080810E94B802CF5FF0CF712C42
:10078000812C912C540183948091AB02781608F04F
:100790005FC0072D10E0E091A802F091A902E00FE0
:1007A000F11F61E080810E94B802E091A802F091FF
:1007B000A902E00FF11F60E080810E948602D5014E
:1007C000C401072C04C0880F991FAA1FBB1F0A94DD
:1007D000D2F76C017C01E094F094612C8091AA0224
:1007E0006816F8F4C62DD0E0E091A602F091A702B9
:1007F000EC0FFD1F80810E945A022496CC0FDD1F52
:10080000CC5BDD4F892B41F4888199818C299D290E
:10081000998388836394E2CF888199818E219F2177
:10082000F7CFE091A802F091A902E00FF11F61E07B
:1008300080810E9486028091A8029091A902080FEF
:10084000191F60E0F80180810E94B80273949CCF68
:10085000C4E4D2E0FE018FEF9FEF278D30A1232B60
:1008600021F4148E968F858F11A2369622E0E038FF
:10087000F20799F7F12C96E0D92E8091AA02F8168A
:1008800008F050C0E12C0F2D10E0000F111F045B89
:100890001D4F2091AB02E21608F042C0F8016081C2
:1008A00071810E2C02C0769567950A94E2F7F29E4C
:1008B000900111242E0D311DE4E4F2E080E0458D1D
:1008C000568D2417350709F46AC08F5F36968A3033
:1008D000B1F760FF23C0E4E4F2E090E080E0448DF3
:1008E000411117C0E091A402F091A502E20FF31F9D
:1008F0004081D89EF001D99EF00D1124EC5BFD4F94
:10090000448F368F258F10A2178E61E00E948301DD
:1009100005C0019636968A30910509F7E394B9CF60
:10092000F394ABCF80E099A19111892F2696F2E044
:10093000C038DF07C1F79FB7F8944091400250914B
:10094000410260914202709143029FBF4093A00216
:100950005093A1026093A2027093A3028823D9F05E
:10096000809165028823B9F08091630290916402BE
:10097000019789F480916002DF91CF911F910F91CF
:10098000FF90EF90DF90CF90BF90AF909F908F90AF
:100990007F906F9008951092B00280E0EDCF61706B
:1009A000B5CF3FB7F89480913C0290913D02A09161
:1009B0003E02B0913F0226B5A89B05C02F3F19F01B
:1009C0000196A11DB11D3FBFBA2FA92F982F8827CF
:1009D000BC01CD01620F711D811D911D42E0660FAA
:1009E000771F881F991F4A95D1F708958F929F927C
:1009F000AF92BF92CF92DF92EF92FF926B017C0198
:100A00000E94D1044B015C01C114D104E104F10442
:100A1000B9F00E94D104681979098A099B09683ED6
:100A200073408105910580F321E0C21AD108E108E5
:100A3000F10888EE880E83E0981EA11CB11CE4CF5B
:100A4000FF90EF90DF90CF90BF90AF909F908F90EE
:100A500008954F925F926F927F928F929F92AF9282
:100A6000BF92CF92DF92EF92FF920F931F93CF939B
:100A7000DF93EC01E88188E0E89FF0011124ED5458
:100A8000FD4F03811481003282E018070CF060C032
:100A9000E8E5EE2EE2E0FE2EF8E8CF2ED12C8A819A
:100AA0004701881A910887FD9394880C991C880C3B
:100AB000991C092C000CAA08BB0889812601481A38
:100AC000510887FD5394440C551C440C551C052CAF
:100AD000000C66087708E88190E080E0EF3FB9F00D
:100AE00088E0E89FF0011124ED54FD4F818192814F
:100AF00043E0880F991F4A95E1F7B0E0A0E054E089
:100B0000B595A795979587955A95D1F702969C012B
:100B10002F5F3F4F032E000C440B550B2419350952
:100B200046095709A4EBB0E00E94D10BA50194013E
:100B300024193509460957090E94B20B02171307F9
:100B400069F165E070E080E090E00E94F604A7CFD4
:100B5000E88190E080E0EF3FB9F088E0E89FF001A5
:100B60001124ED54FD4F8181928123E0880F991F5C
:100B70002A95E1F7B0E0A0E034E0B595A795979508
:100B800087953A95D1F702960817190739F065E06D
:100B900070E080E090E00E94F604DACFDF91CF9120
:100BA0001F910F91FF90EF90DF90CF90BF90AF908B
:100BB0009F908F907F906F905F904F9008958F924D
:100BC0009F92AF92BF92FF920F931F93CF93DF93A9
:100BD000FC01F080828108E512E0081B110987FD05
:100BE0001395000F111F000F111F8181C8E8D0E07D
:100BF000C81BD10987FDD395CC0FDD1FCC0FDD1F9E
:100C00004E010D2E000CAA08BB089801012E000C05
:100C1000440B550B281939094A095B09DB010E946D
:100C2000DC0B24EB30E040E050E00E94B20B820E7F
:100C3000931EA41EB51E88E0F89EF0011124DF016A
:100C4000AD54BD4F14969C928E9213978FE28F15E0
:100C500098F08C169D062CF0E801801691060CF495
:100C6000E4018FB7F894ED54FD4F2297CC0FDD1FB0
:100C7000D283C1838FBF1782DF91CF911F910F91D4
:100C8000FF90BF90AF909F908F9008958F929F920A
:100C9000AF92BF92DF92EF92FF920F931F93CF9389
:100CA000DF93FC01D42E808198E0899F700111248C
:100CB000D701AD54BD4F14967C936E931397803338
:100CC00008F045C0828108E512E0081B110987FD84
:100CD0001395000F111F000F111F8181C8E8D0E08C
:100CE000C81BD10987FDD395CC0FDD1FCC0FDD1FAD
:100CF0004E010D2E000CAA08BB089801012E000C15
:100D0000440B550B281939094A095B09DB010E947C
:100D1000DC0B24EB30E040E050E00E94B20B820E8E
:100D2000931EA41EB51E8C169D062CF0E80180169D
:100D300091060CF4E4018FB7F894F701ED54FD4FE0
:100D40002297CC0FDD1FD683C583D7828FBFDF915B
:100D5000CF911F910F91FF90EF90DF90BF90AF90D8
:100D60009F908F900895AF92BF92CF92DF92EF92B3
:100D7000FF920F931F93CF93DF936B017A018C0146
:100D80000E5D1D4FF80120813CE0389FE001399F46
:100D9000D00D1124A0902602B12C27FF1FC0FB010B
:100DA00011821082F80180818F5F808380819E0193
:100DB000280F311D87FD3A952A153B051CF48081CB
:100DC0008C30CCF1F6018081918184349C4908F407
:100DD0006AC1F60180819181049667C180819E017C
:100DE000280F311D87FD3A952A153B05DCF68081D9
:100DF000FE01E80FF11D87FDFA9533E0EE0FFF1FAE
:100E00003A95E1F7ED54FD4F808186FFCBCFF80195
:100E10008081FE01E80FF11D87FDFA9523E0EE0FBA
:100E2000FF1F2A95E1F7ED54FD4F808160E08F733D
:100E30000E948602B7CF8081FE01E80FF11D87FD79
:100E4000FA9593E0EE0FFF1F9A95E1F7ED54FD4FF1
:100E50008781882309F4E2C0F80190818081DE0156
:100E6000A90FB11D97FDBA9573E0AA0FBB1F7A9524
:100E7000E1F7AD54BD4FFE01E80FF11D87FDFA9576
:100E800083E0EE0FFF1F8A95E1F7ED54FD4F1596B5
:100E90002D913C9181819281F8018217930708F08E
:100EA00077C080819081FE01E90FF11D97FDFA95D1
:100EB00033E0EE0FFF1F3A95E1F7ED54FD4FDE01F1
:100EC000A80FB11D87FDBA9543E0AA0FBB1F4A9535
:100ED000E1F7AD54BD4F17968C9121813281820F7D
:100EE000932F911D92838183F80190818081DE018F
:100EF000A90FB11D97FDBA9553E0AA0FBB1F5A95D4
:100F0000E1F7AD54BD4FFE01E80FF11D87FDFA95E5
:100F100063E0EE0FFF1F6A95E1F7ED54FD4F159664
:100F20002D913C91818192818217930708F476C0BC
:100F3000F80180819081FE01E90FF11D97FDFA957E
:100F400043E0EE0FFF1F4A95E1F7ED54FD4FDE0140
:100F5000A80FB11D87FDBA9553E0AA0FBB1F5A9584
:100F6000E1F7AD54BD4F15968D919C91928381838D
:100F7000F8018081FE01E80FF11D87FDFA9563E01D
:100F8000EE0FFF1F6A95E1F7ED54FD4F178246C043
:100F900080819081FE01E90FF11D97FDFA9573E0C4
:100FA000EE0FFF1F7A95E1F7ED54FD4FDE01A80F1C
:100FB000B11D87FDBA9583E0AA0FBB1F8A95E1F7A3
:100FC000AD54BD4F17962C9181819281821B91095E
:100FD00092838183F80190818081DE01A90FB11D88
:100FE00097FDBA9593E0AA0FBB1F9A95E1F7AD5410
:100FF000BD4FFE01E80FF11D87FDFA9523E0EE0FCE
:10100000FF1F2A95E1F7ED54FD4F15962D913C9168
:10101000818192812817390708F08ACFF6018081F3
:101020009181F8012081FE01E20FF11D27FDFA9563
:1010300023E0EE0FFF1F2A95E1F7ED54FD4F2181CC
:101040003281820F931FF70191838083F8018081A1
:10105000FE01E80FF11D87FDFA9533E0EE0FFF1F4B
:101060003A95E1F7ED54FD4F808186FF24C0F801E9
:101070008081C80FD11D87FDDA9583E0CC0FDD1F7D
:101080008A95E1F7CD54DD4F888161E08F73DF9160
:10109000CF911F910F91FF90EF90DF90CF90BF9075
:1010A000AF900C94860280E49CE9F70191838083E1
:1010B0008FEFF8018083DF91CF911F910F91FF9007
:1010C000EF90DF90CF90BF90AF90089544E663E734
:1010D00070E083E392E00E94460644E663E270E03B
:1010E0008DE292E00E94460683E392E00E94290589
:1010F0008DE292E00E94290568EE73E080E090E0C6
:101100000E94F60444E669E170E083E392E00E9405
:10111000460644E664E870E08DE292E00C944606F0
:10112000CF92DF92EF92FF920F931F93CF93DF93B3
:10113000C82F6B0164EF71E080E090E00E94F6043C
:1011400068E770E087E292E00E94DF050C2E000C59
:10115000DD0BE0970D2C000CEE08FF0810E000E01E
:101160000E947A03811123C085E20E945A02892BD2
:1011700041F40F5F1F4F6AEF70E080E090E00E9443
:10118000F604C017D10761F76AE570E087E292E0E4
:101190000E94DF05C701B6010E94F6040E9466089E
:1011A00068E770E087E292E00E94DF05D7CF6AE54A
:1011B00070E087E292E0DF91CF911F910F91FF9055
:1011C000EF90DF90CF900C94DF051F920F920FB637
:1011D0000F9211242F933F938F939F93AF93BF93BD
:1011E0008091400290914102A0914202B09143024D
:1011F00030913B0223E0230F2D3758F50196A11DB6
:10120000B11D20933B028093400290934102A09332
:101210004202B093430280913C0290913D02A09122
:101220003E02B0913F020196A11DB11D80933C0288
:1012300090933D02A0933E02B0933F02BF91AF91C5
:101240009F918F913F912F910F900FBE0F901F9004
:10125000189526E8230F0296A11DB11DD2CF1F922B
:101260000F920FB60F9211240BB60F922F933F934C
:101270004F935F936F937F938F939F93AF93BF939E
:10128000EF93FF9348E251E064E271E090E080E088
:101290000E94B306FF91EF91BF91AF919F918F9103
:1012A0007F916F915F914F913F912F910F900BBE66
:1012B0000F900FBE0F901F9018951F920F920FB6B0
:1012C0000F9211240BB60F922F933F934F935F937E
:1012D0006F937F938F939F93AF93BF93EF93FF93FE
:1012E00048EA50E064EA70E083E090E00E94B306D0
:1012F000FF91EF91BF91AF919F918F917F916F91EE
:101300005F914F913F912F910F900BBE0F900FBEA9
:101310000F901F9018951F920F920FB60F921124E5
:101320000BB60F922F933F934F935F936F937F93DF
:101330008F939F93AF93BF93EF93FF9348E950E050
:1013400064E970E082E090E00E94B306FF91EF91C3
:10135000BF91AF919F918F917F916F915F914F91CD
:101360003F912F910F900BBE0F900FBE0F901F90CB
:1013700018951F920F920FB60F9211240BB60F9271
:101380002F933F934F935F936F937F938F939F938D
:10139000AF93BF93EF93FF9348E850E064E870E0A9
:1013A00081E090E00E94B306FF91EF91BF91AF9171
:1013B0009F918F917F916F915F914F913F912F916D
:1013C0000F900BBE0F900FBE0F901F901895DC0171
:1013D000E0912602E033C8F481E08E0F809326026C
:1013E000EC9388E0E89FF0011124ED54FD4F88EB69
:1013F0009BE09283818315961C92159783E192E07E
:1014000014969C938E93139708958FEF8C93089561
:10141000789484B5826084BD84B5816084BD85B5CF
:10142000826085BD85B5816085BD80916E008160DB
:1014300080936E0010928100809181008260809381
:101440008100809181008160809381008091800083
:101450008160809380008091B10084608093B100AE
:101460008091B00081608093B00080919100826093
:101470008093910080919100816080939100809190
:1014800090008160809390008091A10082608093A1
:10149000A1008091A10081608093A1008091A000B3
:1014A00081608093A000809121018260809321015E
:1014B00080912101816080932101809120018160D0
:1014C0008093200180917A00846080937A008091DB
:1014D0007A00826080937A0080917A0081608093A4
:1014E0007A0080917A00806880937A001092C1001F
:1014F00060E085E20E94B80264E270E087E292E078
:101500000E94F4026AE270E083E392E00E94F40237
:1015100060E370E08DE292E00E94F4026AE570E020
:1015200087E292E00E94DF054AE069E170E083E330
:1015300092E00E9446064AE064E870E08DE292E0A4
:101540000E94460600E010E00E947A038A3209F405
:1015500044C0833209F457C0803309F467C087332D
:1015600009F46FC0883309F477C0893309F47DC06A
:101570002091390230913A021216130644F0082ED7
:10158000000C990BC09790933A0280933902C09156
:101590003902D0913A0268E770E01C161D0614F07B
:1015A0006AE570E087E292E00E94DF0585E20E9432
:1015B0005A02892B59F42197D0933A02C0933902E9
:1015C0006AEF70E080E090E00E94F60401151105DA
:1015D00009F4BACF0E940000B7CF809139029091F0
:1015E0003A02181619069CF244E663E770E083E3BA
:1015F00092E00E94460644E663E270E08DE292E0EB
:101600000E944606C4CF8091390290913A02181682
:1016100019060CF4BCCF44E669E170E083E392E084
:101620000E94460644E664E870E0E8CF8091390203
:1016300090913A02181619060CF4A9CF0E94660878
:10164000A6CF0E947A039FEC980F9630D0F770E0F7
:1016500060E00E9490089BCF0E947A039FEC980F55
:101660009630D0F768EF74E2F4CF44E663E770E0B9
:1016700083E392E00E94460644E663E270E08DE276
:1016800092E00E94460664EF71E080E090E00E94E4
:10169000F60468E770E087E292E00E94DF050E94AE
:1016A0007A038823E1F36AE570E087E292E00E9422
:1016B000DF05B1CF87E292E00E94E70983E392E081
:1016C0000E94E7098DE292E00E94E709109246022B
:1016D00010924A021092490210924B028BE192E062
:1016E0009093450280934402E0E6F2E01082148277
:1016F00013821582369682E0EC39F807B9F783E059
:1017000092E09093A7028093A60280E092E09093EB
:10171000A9028093A80284E08093AA0283E08093C8
:10172000AB0287E092E09093A5028093A4028AE046
:1017300090E09093AD028093AC0284EF91E090939F
:10174000AF028093AE021092B2021092B1021092D8
:10175000A0021092A1021092A2021092A302109273
:10176000B0020895052E97FB1EF400940E94C90B49
:1017700057FD07D00E94E40B07FC03D04EF40C94F5
:10178000C90B50954095309521953F4F4F4F5F4F76
:10179000089590958095709561957F4F8F4F9F4FDD
:1017A00008950E94060CA59F900DB49F900DA49FD4
:1017B000800D911D11240895B7FF0C94D10B0E9448
:1017C000D10B821B930B0895A1E21A2EAA1BBB1BFF
:1017D000FD010DC0AA1FBB1FEE1FFF1FA217B307FD
:1017E000E407F50720F0A21BB30BE40BF50B661F13
:1017F000771F881F991F1A9469F7609570958095D7
:1018000090959B01AC01BD01CF010895A29FB0014D
:10181000B39FC001A39F700D811D1124911DB29F24
:10182000700D811D1124911D0895991B79E004C04C
:10183000991F961708F0961B881F7A95C9F780950F
:101840000895EE0FFF1F881F8BBF0790F691E02DC4
:061850001994F894FFCF8B
:101856001B191723211F1D313233343536373839DA
:101866002A302300642D64000000007603B402834E
:0218760002006E
:00000001FF
